:100000000C942A000C943F000C943F000C943F0089
:100010000C943F000C943F000C943F000C943F0064
:100020000C943F000C943F000C943F000C943F0054
:100030000C943F000C943F000C943F000C943F0044
:100040000C943F000C943F000C943F000C943F0034
:100050000C943F0011241FBECFE5D8E0DEBFCDBF1A
:1000600010E0A0E6B0E0E2ECFAE102C005900D92EB
:10007000A836B107D9F70E942A0C0C945F0D0C9496
:100080000000EF92FF920F931F937B018C0120E001
:1000900030E040E05FE40E94410388238CF0C80117
:1000A000B70120E030E040E05FE40E94B9010E9427
:1000B000A1039B01AC01205030404040504806C095
:1000C000C801B7010E94A1039B01AC01B901CA019B
:1000D0001F910F91FF90EF900895A0E0B0E0E3E74B
:1000E000F0E00C94280DDC012B01FA019C91923078
:1000F00008F439C1EB018881823008F433C19430AF
:1001000069F4843009F02FC111969C91119789816F
:10011000981709F428C1A0E6B0E025C1843009F49D
:1001200021C18230A9F4923009F01DC19A01AD01BC
:1001300088E0EA010990AE01E90109929E0181502F
:10014000C1F7E201898111969C918923818308C1BD
:10015000923009F407C112962D903C901397EB0151
:100160008A819B811496AD90BD90CD90DC901797BD
:10017000EC80FD800E811F819101281B390BB90194
:1001800037FF04C066277727621B730B6032710547
:100190000CF061C0121613066CF537014801062EEB
:1001A00004C096948794779467940A94D2F721E0D8
:1001B00030E040E050E004C0220F331F441F551FC1
:1001C0006A95D2F721503040404050402E213F21C7
:1001D00040235123211531054105510521F021E02E
:1001E00030E040E050E079018A01E628F72808294C
:1001F00019293CC0232BD1F1260E371E35014601AB
:10020000062E04C096948794779467940A94D2F744
:1002100021E030E040E050E004C0220F331F441FD3
:10022000551F6A95D2F721503040404050402A2156
:100230003B214C215D21211531054105510521F05E
:1002400021E030E040E050E059016A01A628B728DB
:10025000C828D9280BC0821593052CF01C01AA24AC
:10026000BB24650103C0EE24FF24870111969C91F5
:10027000D20111968C91981709F445C0992339F051
:10028000A80197012A193B094C095D0906C0A6017E
:1002900095012E193F09400B510B57FD08C01182E3
:1002A0003382228224833583468357831DC081E0B5
:1002B00081833382228288279927DC01821B930B5A
:1002C000A40BB50B84839583A683B7830DC0220F3F
:1002D000331F441F551F24833583468357838281F0
:1002E000938101979383828324813581468157814D
:1002F000DA01C9010197A109B1098F5F9F4FAF4F83
:10030000BF4328F30BC0918333822282EA0CFB1C8B
:100310000C1D1D1DE482F5820683178383E0808314
:10032000248135814681578157FF1AC0C901AA2708
:1003300097FDA095BA2F81709070A070B0705695FF
:10034000479537952795822B932BA42BB52B848328
:100350009583A683B7838281938101969383828359
:10036000DF0101C0D201CD01CDB7DEB7E2E10C94CF
:10037000440DA0E2B0E0EFEBF1E00C94340D6983A2
:100380007A838B839C832D833E834F835887E9E058
:10039000EE2EF12CEC0EFD1ECE010196B7010E944F
:1003A000CA048E010F5E1F4FCE010596B8010E9450
:1003B000CA048A8991E089278A8BC701B801AE01F6
:1003C000475E5F4F0E946D000E94F503A096E6E035
:1003D0000C94500DA0E2B0E0E0EFF1E00C94340D8D
:1003E00069837A838B839C832D833E834F835887D5
:1003F000F9E0EF2EF12CEC0EFD1ECE010196B701B7
:100400000E94CA048E010F5E1F4FCE010596B801EF
:100410000E94CA04C701B801AE01475E5F4F0E9447
:100420006D000E94F503A096E6E00C94500DA0E24A
:10043000B0E0EDE1F2E00C94280D69837A838B83C0
:100440009C832D833E834F835887CE010196BE0146
:10045000675F7F4F0E94CA04CE010596BE016F5EA2
:100460007F4F0E94CA049985923088F08989823032
:10047000C8F0943019F4823051F404C0843029F467
:10048000923081F480E690E0C6C0923049F420E0DA
:100490009A858A89981321E02A87CE010996BBC0E4
:1004A000823049F420E09A858A89981321E02A8BCA
:1004B000CE014196B0C02D843E844F8458886D880B
:1004C0007E888F88988CEE24FF248701AA24BB2481
:1004D000650140E050E060E070E0E0E0F0E0C10184
:1004E00081709070892BE9F0E60CF71C081D191D2E
:1004F0009A01AB012A0D3B1D4C1D5D1D80E090E073
:10050000A0E0B0E0E614F7040805190520F481E046
:1005100090E0A0E0B0E0BA01A901480F591F6A1F9E
:100520007B1FAA0CBB1CCC1CDD1C97FE08C081E005
:1005300090E0A0E0B0E0A82AB92ACA2ADB2A3196C6
:10054000E032F10549F0660C771C881C991C569422
:10055000479437942794C3CFFA85EA892B893C893D
:100560008B859C85280F391F2E5F3F4F17C0CA010E
:1005700081709070892B61F016950795F794E79438
:1005800080E090E0A0E0B0E8E82AF92A0A2B1B2BD3
:1005900076956795579547952F5F3F4F77FDE7CF46
:1005A0000CC0440F551F661F771F17FD4160EE0CEE
:1005B000FF1C001F111F21503040403090E05907B0
:1005C00090E0690790E4790760F32B8F3C8FDB01A3
:1005D000CA018F779070A070B07080349105A1052A
:1005E000B10561F447FD0AC0E114F10401051105EC
:1005F00029F0405C5F4F6F4F7F4F40781A8EFE1797
:1006000011F081E08A8F4D8F5E8F6F8F78A383E02A
:10061000898FCE0149960E94F503A096E2E10C94E1
:10062000440DA8E1B0E0E7E1F3E00C94340D6983F8
:100630007A838B839C832D833E834F83588789E005
:10064000E82EF12CEC0EFD1ECE010196B7010E94A2
:10065000CA048E010F5E1F4FCE010596B8010E949D
:10066000CA048985823040F08989823028F0C70128
:10067000B8010E94420501C08FEF6896E6E00C9435
:10068000500DA8E1B0E0E7E4F3E00C94340D698389
:100690007A838B839C832D833E834F83588789E0A5
:1006A000E82EF12CEC0EFD1ECE010196B7010E9442
:1006B000CA048E010F5E1F4FCE010596B8010E943D
:1006C000CA048985823040F08989823028F0C701C8
:1006D000B8010E94420501C08FEF6896E6E00C94D5
:1006E000500DA8E1B0E0E7E7F3E00C94340D698326
:1006F0007A838B839C832D833E834F83588789E045
:10070000E82EF12CEC0EFD1ECE010196B7010E94E1
:10071000CA048E010F5E1F4FCE010596B8010E94DC
:10072000CA048985823040F08989823028F0C70167
:10073000B8010E94420501C081E06896E6E00C9491
:10074000500DACE0B0E0E7EAF3E00C94380D6983BB
:100750007A838B839C83CE010196BE016B5F7F4FB2
:100760000E94CA048D81823061F1823050F1843060
:1007700021F48E81882351F12EC02F81388537FDD9
:1007800020C06E812F3131051CF06623F9F023C0A3
:100790008EE190E0821B930B29853A854B855C8521
:1007A00004C056954795379527958A95D2F76623C5
:1007B000B1F050954095309521953F4F4F4F5F4F89
:1007C0000EC020E030E040E050E009C02FEF3FEFE6
:1007D0004FEF5FE704C020E030E040E050E8B901AF
:1007E000CA012C96E2E00C94540DDF92EF92FF9236
:1007F0000F931F93FC01E480F58006811781D1805F
:100800008081823048F480E090E0A0E1B0E0E82A06
:10081000F92A0A2B1B2BA5C0843009F49FC0823013
:1008200021F4EE24FF24870105C0E114F104010541
:10083000110519F4E0E0F0E096C0628173819FEF4A
:10084000623879070CF05BC022E83FEF261B370BBC
:100850002A3131052CF020E030E040E050E02AC0A1
:10086000B801A701022E04C0769567955795479564
:100870000A94D2F781E090E0A0E0B0E004C0880FD5
:10088000991FAA1FBB1F2A95D2F70197A109B10989
:100890008E219F21A023B1230097A105B10521F04E
:1008A00081E090E0A0E0B0E09A01AB01282B392B69
:1008B0004A2B5B2BDA01C9018F779070A070B07062
:1008C00080349105A105B10539F427FF09C0205CEA
:1008D0003F4F4F4F5F4F04C0215C3F4F4F4F5F4F23
:1008E000E0E0F0E02030A0E03A07A0E04A07A0E412
:1008F0005A0710F0E1E0F0E079018A0127C0603882
:10090000710564F5FB01E158FF4FD801C7018F77EE
:100910009070A070B07080349105A105B10539F4D4
:10092000E7FE0DC080E490E0A0E0B0E004C08FE3FB
:1009300090E0A0E0B0E0E80EF91E0A1F1B1F17FFB1
:1009400005C016950795F794E794319687E01695BC
:100950000795F794E7948A95D1F705C0EE24FF2414
:100960008701EFEFF0E06E2F679566276795902F70
:100970009F77D794DD24D7948E2F8695492F462BC9
:10098000582F5D29B701CA011F910F91FF90EF9079
:10099000DF900895FC01DB01408151812281622FAB
:1009A0006F7770E0221F2227221F9381892F880FE3
:1009B000822B282F30E0991F9927991F11969C931D
:1009C000119721153105A9F54115510561057105ED
:1009D00011F482E037C082E89FEF13969C938E93C8
:1009E00012979A01AB0167E0220F331F441F551F76
:1009F0006A95D1F783E08C930DC0220F331F441FFB
:100A0000551F12968D919C911397019713969C9365
:100A10008E931297203080E0380780E0480780E40A
:100A2000580758F314962D933D934D935C93179765
:100A300008952F3F310579F4411551056105710580
:100A400019F484E08C93089564FF03C081E08C93D3
:100A500012C01C9210C02F57304013963C932E9317
:100A6000129783E08C9387E0440F551F661F771F12
:100A70008A95D1F7706414964D935D936D937C9332
:100A8000179708951F93DC01FB019C91923008F4A5
:100A900047C08081823008F443C0943051F41196ED
:100AA0001C91843099F58181682F70E0611B710978
:100AB0003FC0843021F0923031F48230B9F181812D
:100AC000882389F12DC011961C9111978230F1F085
:100AD00081811817D9F412962D913C911397828138
:100AE00093818217930794F028173907BCF0149666
:100AF0008D919D910D90BC91A02D248135814681D1
:100B00005781281739074A075B0718F4112341F06A
:100B10000AC082179307A407B50740F4112319F000
:100B200061E070E005C06FEF7FEF02C060E070E051
:100B3000CB011F910895DF93CF9300D0CDB7DEB7DF
:100B400089836A83A6E2B0E0E6E2F0E08081806813
:100B50008C93A6E2B0E0E6E2F0E0808188608C93BE
:100B60008A81882379F4A7E2B0E0E7E2F0E08081AF
:100B70008F7B8C93A7E2B0E0E7E2F0E080818F7793
:100B80008C9323C08A81813079F4A7E2B0E0E7E258
:100B9000F0E080818F7B8C93A7E2B0E0E7E2F0E0A9
:100BA000808180688C9311C08A81823071F4A7E2C1
:100BB000B0E0E7E2F0E0808180648C93A7E2B0E0EF
:100BC000E7E2F0E0808180688C9389818823B1F42A
:100BD000A6E2B0E0E6E2F0E080818E7F8C93A6E2B0
:100BE000B0E0E6E2F0E080818D7F8C93A6E2B0E099
:100BF000E6E2F0E080818B7F8C9395C08981813023
:100C0000B1F4A6E2B0E0E6E2F0E080818E7F8C9362
:100C1000A6E2B0E0E6E2F0E0808182608C93A6E29A
:100C2000B0E0E6E2F0E080818B7F8C937CC089812C
:100C30008230B1F4A6E2B0E0E6E2F0E080818160CB
:100C40008C93A6E2B0E0E6E2F0E0808182608C93D3
:100C5000A6E2B0E0E6E2F0E080818B7F8C9363C097
:100C600089818330B1F4A6E2B0E0E6E2F0E0808171
:100C70008E7F8C93A6E2B0E0E6E2F0E080818D7F8B
:100C80008C93A6E2B0E0E6E2F0E0808184608C9391
:100C90004AC089818430B1F4A6E2B0E0E6E2F0E037
:100CA000808181608C93A6E2B0E0E6E2F0E0808192
:100CB0008D7F8C93A6E2B0E0E6E2F0E08081846074
:100CC0008C9331C089818530B1F4A6E2B0E0E6E2D0
:100CD000F0E080818E7F8C93A6E2B0E0E6E2F0E067
:100CE000808182608C93A6E2B0E0E6E2F0E0808151
:100CF00084608C9318C089818630A9F4A6E2B0E0A4
:100D0000E6E2F0E0808181608C93A6E2B0E0E6E26A
:100D1000F0E0808182608C93A6E2B0E0E6E2F0E051
:100D2000808184608C930F900F90CF91DF91089514
:100D3000DF93CF93CDB7DEB727970FB6F894DEBF1A
:100D40000FBECDBF8F831E821D8289E08C8388E019
:100D50008B831A8281E08983A6E2B0E0E6E2F0E0CC
:100D6000808180688C938F81882321F5A7E2B0E091
:100D7000E7E2F0E080818E7F8C93A7E2B0E0E7E2CB
:100D8000F0E080818D7F8C93A7E2B0E0E7E2F0E0B5
:100D900080818B7F8C93A7E2B0E0E7E2F0E0808176
:100DA000877F8C93A7E2B0E0E7E2F0E080818F7E5E
:100DB0008C9310C18F81813021F5A7E2B0E0E7E28A
:100DC000F0E0808181608C93A7E2B0E0E7E2F0E0A0
:100DD00080818D7F8C93A7E2B0E0E7E2F0E0808134
:100DE0008B7F8C93A7E2B0E0E7E2F0E08081877F21
:100DF0008C93A7E2B0E0E7E2F0E080818F7E8C93F5
:100E0000E9C08F81823021F5A7E2B0E0E7E2F0E0AF
:100E100080818E7F8C93A7E2B0E0E7E2F0E08081F2
:100E200082608C93A7E2B0E0E7E2F0E080818B7F04
:100E30008C93A7E2B0E0E7E2F0E08081877F8C93BB
:100E4000A7E2B0E0E7E2F0E080818F7E8C93C2C041
:100E50008F81833021F5A7E2B0E0E7E2F0E0808106
:100E600081608C93A7E2B0E0E7E2F0E080818260ED
:100E70008C93A7E2B0E0E7E2F0E080818B7F8C9377
:100E8000A7E2B0E0E7E2F0E08081877F8C93A7E201
:100E9000B0E0E7E2F0E080818F7E8C939BC08F8191
:100EA000843021F5A7E2B0E0E7E2F0E080818E7FB8
:100EB0008C93A7E2B0E0E7E2F0E080818D7F8C9335
:100EC000A7E2B0E0E7E2F0E0808184608C93A7E2E3
:100ED000B0E0E7E2F0E08081877F8C93A7E2B0E0AA
:100EE000E7E2F0E080818F7E8C9374C08F81853043
:100EF00021F5A7E2B0E0E7E2F0E0808181608C9329
:100F0000A7E2B0E0E7E2F0E080818D7F8C93A7E27A
:100F1000B0E0E7E2F0E0808184608C93A7E2B0E08B
:100F2000E7E2F0E08081877F8C93A7E2B0E0E7E220
:100F3000F0E080818F7E8C934DC08F81863021F5CB
:100F4000A7E2B0E0E7E2F0E080818E7F8C93A7E239
:100F5000B0E0E7E2F0E0808182608C93A7E2B0E04D
:100F6000E7E2F0E0808184608C93A7E2B0E0E7E202
:100F7000F0E08081877F8C93A7E2B0E0E7E2F0E0C9
:100F800080818F7E8C9326C08F81873019F5A7E2F0
:100F9000B0E0E7E2F0E0808181608C93A7E2B0E00E
:100FA000E7E2F0E0808182608C93A7E2B0E0E7E2C4
:100FB000F0E0808184608C93A7E2B0E0E7E2F0E0AB
:100FC0008081877F8C93A7E2B0E0E7E2F0E0808148
:100FD0008F7E8C93A6E2B0E0E6E2F0E08081806450
:100FE0008C93E6E2F0E08081829586958695837009
:100FF000882F90E081709070882399F7E7E2F0E005
:101000008081829586958770882F90E09C01217061
:1010100030708A81882F90E02817390789F4E4E23C
:10102000F0E08081282F30E0E5E2F0E08081882F39
:1010300090E0982F8827822B932B9E838D831DC051
:10104000E7E2F0E08081829586958770882F90E0B6
:101050009C01217030708981882F90E02817390712
:1010600061F4E5E2F0E08081882F90E0880F991F1D
:10107000880F991F82609E838D838D819E81279624
:101080000FB6F894DEBF0FBECDBFCF91DF910895AC
:10109000DF93CF93CDB7DEB7A6E2B0E0E6E2F0E0B3
:1010A00080818F778C93CF91DF910895DF93CF93D9
:1010B000CDB7DEB7EAE3F0E08FEF8083E7E3F0E05F
:1010C0008FEF8083E4E3F0E08FEF8083E1E3F0E0F3
:1010D0008FEF8083CF91DF910895DF93CF930F92AD
:1010E000CDB7DEB7898389818830A0F4ABE3B0E067
:1010F000EBE3F0E08081482F8981282F30E081E008
:1011000090E0022E02C0880F991F0A94E2F7842B08
:101110008C9356C089818031D0F489818830B8F0B1
:10112000A8E3B0E0E8E3F0E08081482F8981882FD0
:1011300090E09C012850304081E090E0022E02C0F7
:10114000880F991F0A94E2F7842B8C9339C0898108
:101150008831D0F489818031B8F0A5E3B0E0E5E3CF
:10116000F0E08081482F8981882F90E09C012051F8
:10117000304081E090E0022E02C0880F991F0A944F
:10118000E2F7842B8C931CC089818831C8F0898157
:101190008032B0F4A2E3B0E0E2E3F0E08081482FD7
:1011A0008981882F90E09C012851304081E090E0B7
:1011B000022E02C0880F991F0A94E2F7842B8C93A9
:1011C0000F90CF91DF910895DF93CF930F92CDB71A
:1011D000DEB7898389818830A8F4ABE3B0E0EBE324
:1011E000F0E08081482F8981282F30E081E090E075
:1011F000022E02C0880F991F0A94E2F7809584237B
:101200008C9359C089818031D8F489818830C0F0AD
:10121000A8E3B0E0E8E3F0E08081482F8981882FDF
:1012200090E09C012850304081E090E0022E02C006
:10123000880F991F0A94E2F7809584238C933BC012
:1012400089818831D8F489818031C0F0A5E3B0E08C
:10125000E5E3F0E08081482F8981882F90E09C01B0
:101260002051304081E090E0022E02C0880F991F8B
:101270000A94E2F7809584238C931DC0898188317C
:10128000D0F089818032B8F4A2E3B0E0E2E3F0E08C
:101290008081482F8981882F90E09C01285130401F
:1012A00081E090E0022E02C0880F991F0A94E2F7B5
:1012B000809584238C930F90CF91DF910895DF93D5
:1012C000CF9300D00F92CDB7DEB78A838A81883062
:1012D000F8F4E9E3F0E08081282F30E08A81882F5C
:1012E00090E0A90102C0559547958A95E2F7CA0199
:1012F000817089838981813019F451E05B837CC0DE
:101300008981882311F41B8277C08FEF8B8374C08F
:101310008A81803118F58A81883000F1E6E3F0E0B7
:101320008081282F30E08A81882F90E00897A901DA
:1013300002C0559547958A95E2F7CA018170898365
:101340008981813019F451E05B8356C089818823FB
:1013500011F41B8251C08FEF8B834EC08A8188317C
:1013600018F58A81803100F1E3E3F0E08081282FD5
:1013700030E08A81882F90E04097A90102C05595FE
:1013800047958A95E2F7CA01817089838981813006
:1013900019F451E05B8330C08981882311F41B82EA
:1013A0002BC08FEF8B8328C08A81883118F18A8106
:1013B000803200F5E0E3F0E08081282F30E08A8180
:1013C000882F90E04897A90102C0559547958A95C6
:1013D000E2F7CA01817089838981813019F451E073
:1013E0005B830AC08981882311F41B8205C08FEFBB
:1013F0008B8302C04FEF4B838B810F900F900F9028
:10140000CF91DF910895DF93CF9300D0CDB7DEB7B2
:1014100089836A838981883080F58A818130A1F44B
:10142000AAE3B0E0EAE3F0E08081482F8981282F29
:1014300030E081E090E0022E02C0880F991F0A94EC
:10144000E2F7842B8C93CBC08A81882309F0C7C034
:10145000AAE3B0E0EAE3F0E08081482F8981282FF9
:1014600030E081E090E0022E02C0880F991F0A94BC
:10147000E2F7809584238C93B2C089818031C8F5CE
:1014800089818830B0F18A818130B9F4A7E3B0E076
:10149000E7E3F0E08081482F8981882F90E09C016C
:1014A0002850304081E090E0022E02C0880F991F42
:1014B0000A94E2F7842B8C9392C08A81882309F0E6
:1014C0008EC0A7E3B0E0E7E3F0E08081482F898198
:1014D000882F90E09C012850304081E090E0022E5F
:1014E00002C0880F991F0A94E2F7809584238C9399
:1014F00076C089818831C8F589818031B0F18A81CF
:101500008130B9F4A4E3B0E0E4E3F0E08081482F57
:101510008981882F90E09C012051304081E090E04B
:10152000022E02C0880F991F0A94E2F7842B8C9335
:1015300056C08A81882309F052C0A4E3B0E0E4E3F6
:10154000F0E08081482F8981882F90E09C01205114
:10155000304081E090E0022E02C0880F991F0A946B
:10156000E2F7809584238C933AC089818831B8F161
:1015700089818032A0F58A818130B9F4A4E3B0E09A
:10158000E4E3F0E08081482F8981882F90E09C017E
:101590002851304081E090E0022E02C0880F991F50
:1015A0000A94E2F7842B8C931AC08A818823B9F4B9
:1015B000A4E3B0E0E4E3F0E08081482F8981882F44
:1015C00090E09C012851304081E090E0022E02C062
:1015D000880F991F0A94E2F7809584238C930F90CB
:1015E0000F90CF91DF910895DF93CF9300D0CDB7C7
:1015F000DEB789836A838981883080F58A8181306A
:10160000A1F4ABE3B0E0EBE3F0E08081482F898107
:10161000282F30E081E090E0022E02C0880F991F51
:101620000A94E2F7842B8C93CBC08A81882309F03B
:10163000C7C0ABE3B0E0EBE3F0E08081482F8981E5
:10164000282F30E081E090E0022E02C0880F991F21
:101650000A94E2F7809584238C93B2C0898180310B
:10166000C8F589818830B0F18A818130B9F4A8E366
:10167000B0E0E8E3F0E08081482F8981882F90E096
:101680009C012850304081E090E0022E02C0880F7B
:10169000991F0A94E2F7842B8C9392C08A81882345
:1016A00009F08EC0A8E3B0E0E8E3F0E08081482FC5
:1016B0008981882F90E09C012850304081E090E0A3
:1016C000022E02C0880F991F0A94E2F780958423A6
:1016D0008C9376C089818831C8F589818031B0F1D9
:1016E0008A818130B9F4A5E3B0E0E5E3F0E08081E0
:1016F000482F8981882F90E09C012051304081E063
:1017000090E0022E02C0880F991F0A94E2F7842B02
:101710008C9356C08A81882309F052C0A5E3B0E0BB
:10172000E5E3F0E08081482F8981882F90E09C01DB
:101730002051304081E090E0022E02C0880F991FB6
:101740000A94E2F7809584238C933AC0898188318A
:10175000B8F189818032A0F58A818130B9F4A2E3A1
:10176000B0E0E2E3F0E08081482F8981882F90E0AB
:101770009C012851304081E090E0022E02C0880F89
:10178000991F0A94E2F7842B8C931AC08A818823CC
:10179000B9F4A2E3B0E0E2E3F0E08081482F898170
:1017A000882F90E09C012851304081E090E0022E8B
:1017B00002C0880F991F0A94E2F7809584238C93C6
:1017C0000F900F90CF91DF910895DF93CF9300D0CA
:1017D000CDB7DEB79A838983E0E4F0E089819A810E
:1017E000892F99278083E9E2F0E089818083EAE20A
:1017F000F0E088E18083E0E4F0E08EE080830F9009
:101800000F90CF91DF910895DF93CF930F92CDB7D3
:10181000DEB78983EBE2F0E08081882F90E0807270
:1018200090700097B9F3ECE2F0E0898180830F902B
:10183000CF91DF910895DF93CF93CDB7DEB7EBE281
:10184000F0E080818823DCF7ECE2F0E08081CF914A
:10185000DF910895DF93CF93CDB7DEB763970FB6CF
:10186000F894DEBF0FBECDBF0E94560883E390E020
:101870000E94E50B1B8A1A8A198A0E941B0C888B0E
:10188000EBE3F0E0888980838FE38F8780E090E04E
:10189000A8E4B3E48B879C87AD87BE876B857C8586
:1018A0008D859E8520E030E04AEF54E40E941702C7
:1018B000DC01CB018F839887A987BA876F817885F0
:1018C00089859A8520E030E040E85FE30E9471035B
:1018D00088232CF481E090E09E838D833FC06F814C
:1018E000788589859A8520E03FEF4FE757E40E948D
:1018F000110318164CF56B857C858D859E8520E03F
:1019000030E040E251E40E941702DC01CB01BC014F
:10191000CD010E944100DC01CB019E838D830FC06D
:1019200088EC90E09C838B838B819C810197F1F7FD
:101930009C838B838D819E8101979E838D838D8176
:101940009E81009769F799CF6F81788589859A85FF
:101950000E944100DC01CB019E838D838D819E819D
:101960009A83898389819A810197F1F79A83898380
:1019700084CF0F931F93DF93CF93CDB7DEB72A9712
:101980000FB6F894DEBF0FBECDBF9A8389837C83E8
:101990006B835E834D8338872F831A87098729815C
:1019A0003A818B819C81A901481B590B29853A8575
:1019B0008F819885B901681B790BCB019A01289F0B
:1019C000A001299F500D389F500D11242D813E817B
:1019D0008B819C81281B390BCA01B9010E94010D22
:1019E000CB019C018F819885820F931F2A960FB699
:1019F000F894DEBF0FBECDBFCF91DF911F910F9145
:101A0000089597FB092E07260AD077FD04D00CD045
:101A100006D000201AF4709561957F4F0895F6F76F
:101A2000909581959F4F0895AA1BBB1B51E107C05C
:101A3000AA1FBB1FA617B70710F0A61BB70B881F5E
:101A4000991F5A95A9F780959095BC01CD010895ED
:101A50002F923F924F925F926F927F928F929F92BE
:101A6000AF92BF92CF92DF92EF92FF920F931F93AC
:101A7000CF93DF93CDB7DEB7CA1BDB0B0FB6F8945D
:101A8000DEBF0FBECDBF09942A88398848885F849D
:101A90006E847D848C849B84AA84B984C884DF800E
:101AA000EE80FD800C811B81AA81B981CE0FD11DF2
:101AB0000FB6F894DEBF0FBECDBFED010895F894C8
:021AC000FFCF56
:081AC20000000000000000001C
:00000001FF
